:020000040800F2
:1000000000500020113D0008E5370008E7370008E0
:10001000E9370008EB370008ED3700080000000062
:10002000000000000000000000000000EF370008A2
:10003000F137000800000000F3370008F53700082A
:10004000593D0008593D0008593D0008593D000838
:10005000593D0008593D0008593D0008593D000828
:10006000593D0008593D0008593D0008593D000818
:10007000593D0008593D0008593D0008593D000808
:10008000593D0008593D0008593D0008593D0008F8
:1000900001380008593D0008593D0008593D000845
:1000A000593D0008593D0008593D0008593D0008D8
:1000B000593D0008593D0008593D0008593D0008C8
:1000C000593D0008593D0008593D0008593D0008B8
:1000D000593D0008593D000811380008593D0008F5
:1000E000593D0008593D0008593D00080000000036
:1000F0000000000000000000000000000000000000
:0C01000000000000000000005FF808F1A3
:10010C0010B5054C237833B9044B13B10448AFF345
:10011C0000800123237010BDD001002000000000DE
:10012C00084C000808B5034B1BB103490348AFF357
:10013C00008008BD00000000D4010020084C00081D
:10014C00034613F8012B002AFBD1181A013870470B
:10015C0070B500250C4E0D4CA41BA410A54209D162
:10016C0004F04CFD00250A4E0A4CA41BA410A54219
:10017C0005D170BD56F8253098470135EEE756F895
:10018C00253098470135F2E7B44D0008B44D00080E
:10019C00B44D0008B84D000803460244934200D108
:1001AC00704703F8011BF9E70A4B10B504461868B1
:1001BC0018B183690BB903F011FE132C07D806484C
:1001CC0050F83430013302D000EBC40010BD0020D5
:1001DC00FCE700BF6001002024050020F8B5431C9B
:1001EC00054609D103F0B4FD13240646002720462A
:1001FC003946ABBE044634602846F8BDF8B5054612
:10020C0003F0A6FD13240646002720463946ABBE54
:10021C00044634602846F8BD30B585B0CDE90101FF
:10022C000392062401AD20462946ABBE0446204667
:10023C00FFF7D4FF05B030BD70B50E461546FFF77D
:10024C00B3FF044630B903F083FD092303604FF07C
:10025C00FF3070BD2A4631460068FFF7DDFF431CB6
:10026C001FBF6368281A1B186360F2E7F7B50C46CA
:10027C001646FFF799FF054640B903F069FD0923BF
:10028C0003604FF0FF34204603B0F0BD022E03D9BB
:10029C0003F05EFD1623F3E7012E12D14368E41838
:1002AC00F6D42B680A26CDE900346F463046394621
:1002BC00ABBE06463046FFF791FF0028E1DB6C60D1
:1002CC00E1E7022EEDD1036802AF47F8083D0C269A
:1002DC0030463946ABBE06463046FFF77FFF431C1F
:1002EC00CFD00444DDE7FFF7C1BF30B585B0CDE911
:1002FC0001010392052401AD20462946ABBE0446FC
:10030C002046FFF76BFF05B030BD70B50E461546A5
:10031C00FFF74AFF044630B903F01AFD09230360C6
:10032C004FF0FF3070BD2A4631460068FFF7DDFF05
:10033C00021EF5DB6368A81A034495426360F1D191
:10034C00BDE870400020FFF759BF37B502AD45F846
:10035C00040D022420462946ABBE04462046FFF776
:10036C003DFF03B030BD000038B50546FFF71CFF5C
:10037C00044630B903F0ECFC092303604FF0FF3066
:10038C0038BD013D012D09D8094B9A681B699A4269
:10039C0004D14FF0FF3303600020F1E72068FFF732
:1003AC00D4FF0028ECD14FF0FF332360E8E700BF07
:1003BC00240500200D4B10B51968024609B90C49EB
:1003CC0019606946186802448A4206D809490A4CE1
:1003DC000968A14208D08A4206D903F0B9FC0C2363
:1003EC0003604FF0FF3010BD1A60FCE714050020CD
:1003FC00F0160020C4010020ADDEFECA70B50C461C
:10040C00FFF7D2FE064630B903F0A2FC09230360C5
:10041C004FF0FF3070BD63680C2543F400536360EC
:10042C004FF48063636428463146ABBE05462846CC
:10043C00FFF7D4FE431C1CBF20610020EAE70B46EB
:10044C0010B50021044658221846FFF7A5FE0146B8
:10045C002046BDE81040FFF7D1BF38B50D46044625
:10046C00582200212846FFF797FE2046002100F075
:10047C0011F8431C04460BD06B68294643F4014326
:10048C006B60FFF7BBFF05462046FFF76DFF2C4660
:10049C00204638BD2B4B2DE9F04782460E460025F1
:1004AC00984696B053F83540EF00611C36D00135B4
:1004BC00142DF7D103F04CFC18234FF0FF340360DC
:1004CC003CE040F20163C6F30044B20748BF44F07D
:1004DC0002041E4218BF44F00404330748BF24F042
:1004EC000404504648BF44F00804CDF800A0FFF7C0
:1004FC0027FECDE90140012420464946ABBE044607
:10050C00002C06DB0023474448F835407B602C4622
:10051C0014E02046FFF772FE04460FE006F4206359
:10052C00B3F5206FE946CCD149465046FFF795FF0D
:10053C000130C6D003F00CFC11230360204616B02A
:10054C00BDE8F087240500202DE9F74307468846CF
:10055C00294800211546FFF79DFF04462A46002135
:10056C003846FFF719FE631C15D02046FFF71CFE1A
:10057C000C26814630464946ABBE06463046FFF750
:10058C002DFE032802DD0338A84208DC2046FFF7C5
:10059C00EBFE4FF0FF34204603B0BDE8F08304229D
:1005AC0020460DEB0201FFF747FE0328EEDD9DF818
:1005BC000430532BEAD19DF80530482BE6D19DF839
:1005CC000630462BE2D19DF80730422BDED10122BA
:1005DC0041462046FFF74AFE0028D7DB2A4639461B
:1005EC002046FFF729FE05462046FFF7BDFE2846AC
:1005FC00FFF7F4FD0446CEE7504C000837B5002158
:10060C000122094D094C01A829602260FFF79CFFCB
:10061C00002807DD9DF8043003F0010203F002030B
:10062C002A60236003B030BDC8010020CC0100203B
:10063C0010B5044C2268002A01DAFFF7DFFF2068AE
:10064C0010BD00BFCC0100202DE9F04F0323002486
:10065C00DFF8AC9085B0CDF804900DF1040803934D
:10066C000125029428464146ABBE0546204A234646
:10067C004FF0FF3114461F4E356042F833100133F2
:10068C00142BFAD1FFF7D4FF1B4DD0B14FF0030A56
:10069C000423CDF804900127CDF80CA00293384622
:1006AC004146ABBE8346154BCDF80490C3F800B061
:1006BC000823CDF80CA0029338464146ABBE074642
:1006CC002F602B68013302BF0C4B1B682B60336807
:1006DC00002623606660FFF7ABFF30B1074B1B6849
:1006EC00C4E902362B68C4E9043605B0BDE8F08FC6
:1006FC00240500201C0500201805002020050020E2
:10070C00664C000870B5FFF74FFD0925044620B96B
:10071C0003F01EFB0560204670BD28462146ABBE8B
:10072C000446012CF7D003F013FB002406461325D6
:10073C0028462146ABBE05463560ECE710B50446AD
:10074C000E4B18784FF47A73B3FBF0F30C4A106825
:10075C00B0FBF3F000F0ACF868B90F2C01D9012014
:10076C000AE0002221464FF0FF3000F055F8034B11
:10077C005C60002000E0012010BD00BF00000020E4
:10078C001801002008B5074A136843F010031360E2
:10079C00032000F02FF80020FFF7D0FF02F0CCFF71
:1007AC00002008BD00200240034A1168034B1B784F
:1007BC000B441360704700BFCC05002000000020E4
:1007CC00014B1868704700BFCC05002038B50446B3
:1007DC00FFF7F6FF0546B4F1FF3F02D0044B1B7840
:1007EC001C44FFF7EDFF401BA042FAD338BD00BFFD
:1007FC0000000020074AD36823F4E0631B041B0CA1
:10080C00000200F4E060184340F0BF6040F4003098
:10081C00D060704700ED00E030B4174BDB68C3F3D9
:10082C000223C3F10704042C28BF04241D1D062D2C
:10083C0018D9033B4FF0FF3505FA04F421EA040103
:10084C00994005FA03F322EA0303194300280BDB52
:10085C000901C9B200F1604000F5614080F8001355
:10086C0030BC70470023E5E700F00F000901C9B266
:10087C00024B1954F4E700BF00ED00E014ED00E06A
:10088C0000F01F02400901239340024A42F8203035
:10089C00704700BF00E100E000F01F024009012397
:1008AC0093402030014A42F82030704700E100E0CC
:1008BC000138B0F1807F0AD2064B5860064AF0210D
:1008CC0082F823100020986007221A6070470120DC
:1008DC00704700BF10E000E000ED00E0042805D0F8
:1008EC00054A136823F0040313607047024A136827
:1008FC0043F004031360704710E000E0704708B544
:10090C00FFF7FCFF08BD000008B590F82130022B62
:10091C0003D004238363012008BD0268136823F00D
:10092C000E0313600268136823F00103136003685D
:10093C00194A934214D0143293421FD0143293426A
:10094C001ED0143293421ED0143293421ED0143255
:10095C00934202D04FF0807203E04FF4801200E01B
:10096C0001220E4B5A60012380F82130002380F8BD
:10097C002030436B6BB198470020CDE71022F0E795
:10098C004FF48072EDE74FF48052EAE74FF4803277
:10099C00E7E70020C0E700BF08000240000002406B
:1009AC00F0B482B000263546A1E0002C59D0012CC1
:1009BC0000D1CE68FF2B68D88446FF2B68D8AC00DA
:1009CC00DCF800200F27A74022EA070206FA04F4FD
:1009DC002243CCF800204A6812F0805F00F0868039
:1009EC005E4A946944F001049461926902F0010238
:1009FC000192019AAC08A71C594A52F8272005F01D
:100A0C000307BF004FF00F0C0CFA07FC22EA0C0C8A
:100A1C00544A904242D002F5806290427FD002F557
:100A2C00806290427DD002F58062904234D00422E4
:100A3C0035E04D4FBC4214D00BD94C4FBC4210D0BA
:100A4C0007F58037BC420CD0A7F58017BC42B1D15A
:100A5C0007E0A7F58017BC4203D007F58037BC42EE
:100A6C00A8D18C687CB1012C08D042610826A1E782
:100A7C00CE6808369EE7CE680C369BE702610826E6
:100A8C0098E7002696E7042694E700F1040C94E717
:100A9C00A5F10804A40093E7032200E00022BA4069
:100AAC0042EA0C0202342E4F47F824204A6812F412
:100ABC00803F38D02E4C22681A4322604A6812F4C8
:100ACC00003F36D02A4C62681A4362604A6812F4BE
:100ADC00801F34D0264CA2681A43A2604A6812F4D4
:100AEC00001F32D0224CE2681343E36001350F2D16
:100AFC0031D80122AA400B6813409A42F6D14C68B7
:100B0C00122CB8D095D8022CB2D07FF64EAF032C55
:100B1C00B7D0112C7FF44EAFCE6804364AE70122D1
:100B2C00BDE70222BBE7124C226822EA03022260D4
:100B3C00C4E70F4C626822EA03026260C6E70C4C01
:100B4C00A26822EA0302A260C8E7094CE26822EA22
:100B5C000303E360CAE702B0F0BC70470010024028
:100B6C00000001400008014000002110000031107D
:100B7C0000040140F0B400240EE000F1040C15E078
:100B8C00A4F10806B70014E0032700E0002707FAD9
:100B9C0002F2B2423ED0013431FA04F351D00123B7
:100BAC00A3400B40F7D0FF2BE7D88446FF2BE7D8A8
:100BBC00A700DCF800200F2505FA07F622EA06024A
:100BCC000426BE403243CCF80020C268DB431A40F6
:100BDC00C2604FEA940C0CF102061B4A52F82660D4
:100BEC0004F00302920095402E40184FB842CDD02D
:100BFC0007F58067B84209D007F58067B84207D07F
:100C0C0007F58067B842BFD00427C0E70127BEE7CD
:100C1C000227BCE70C4F0CF1020257F8226026EABF
:100C2C00050547F822500A4A15681D40156055689D
:100C3C001D40556095681D409560D5682B40D3606C
:100C4C00A9E7F0BC704700BF00000140000801405C
:100C5C000004014012B90904016170470161704739
:100C6C00002866D0F0B587B0044690F82934C3B19B
:100C7C00032384F82934206801F08FFA254655F8AF
:100C8C00107B6E460FCD0FC62B683360231D0ECB29
:100C9C00384601F073FA0021206801F088FA00232D
:100CAC0015E080F8283402F08BFEE1E704EB4312E8
:100CBC00012182F8291082F828309386002182F8CD
:100CCC002B109163D1639A1C5201A15001330E2B4E
:100CDC00ECD9002312E004EB4312002182F8291214
:100CEC0082F82832938682F82B12C2F83812C2F896
:100CFC003C1203F112025201A15001330E2BEAD91E
:100D0C00254655F8107B6E460FCD0FC62B68336009
:100D1C00231D0ECB384601F04CFA002584F82450E4
:100D2C00012384F82934206801F057FD284607B0C8
:100D3C00F0BD0120704790F82834012B10D010B56D
:100D4C000446012180F8281402F079FF206801F094
:100D5C0042FD206801F019FA002084F8280410BD27
:100D6C000220704790F82834012B0DD010B50446A2
:100D7C00012380F8283480F82410006801F025FD48
:100D8C00002084F8280410BD0220704738B54DB2FD
:100D9C00002D1CDB01F07F04640104F50A7404448B
:100DAC0001F07F012170ED0F65702261E37090F806
:100DBC002834012B11D00546012380F82834214614
:100DCC00006801F00CFA002085F8280438BD01F009
:100DDC007F04640128340444E2E70220F6E74AB2B7
:100DEC00002A1BDB01F07F035B0103F50A7303444C
:100DFC0001F07F011970D20F5A7090F82824012A43
:100E0C0012D010B50446012280F828241946006837
:100E1C0001F079FB002084F8280410BD01F07F0359
:100E2C005B0128330344E3E70220704770B501F0FF
:100E3C007F056C0104F50A7101440444C4F83C229A
:100E4C0005F112025201861883500023736084F856
:100E5C00293284F8285225B1006801F0DAFC002010
:100E6C0070BD006801F0D5FCF9E701F00F011231FB
:100E7C0000EB41118888704770B501F07F056C015B
:100E8C0004F1280101440444E263AA1C52018618AF
:100E9C00835000237360012384F8293084F8285090
:100EAC0025B1006801F0B5FC002070BD006801F0B0
:100EBC00B0FCF9E770B582B004460023ADF80630FB
:100ECC00ADF804302068B0F844309BB2ADF8063071
:100EDC0013F4004F00F00D82BDF8065015F00F050D
:100EEC0040F0C280BDF8063013F0100F50D00388CC
:100EFC009BB2ADF80430BDF8043013F4006F79D117
:100F0C00BDF8043013F4004FDCD0038823F07003D9
:100F1C001B051B0D03802068B0F8503094F8282274
:100F2C0003EBC203063300EB4303D3F80034C3F3E3
:100F3C000903C4F84432002B7CD10021204602F076
:100F4C0067FD2368B3F85020063203EB4203D4F854
:100F5C0038123E297CD9C1F34F1211F01F0F01D169
:100F6C00013A92B26FEAC2626FEA524292B2C3F88D
:100F7C000024226813889BB223F4804323F070036F
:100F8C0083F4405343F4004343F08003138099E708
:100F9C0003889BB223F4E14323F070039BB20380DC
:100FAC002268B2F8503094F8281003EBC1030233D6
:100FBC0002EB4303D3F80034C3F309036364E26B1D
:100FCC001344E3630021204602F02CFD94F82430F6
:100FDC00002B3FF477AF236C002B7FF473AF94F8A6
:100FEC002430226843F08003A2F84C30002384F8AC
:100FFC00243067E7B0F8503094F8282203EBC20392
:10100C00063300EB4303D3F80034C3F30903C4F8ED
:10101C004432B4F82C2204F22C4101F057FD226822
:10102C00138823F070031B051B0D1380204602F060
:10103C00E7FC47E7B4F82C22D4F83C1201F046FD4B
:10104C00D4F84422D4F83C321344C4F83C3274E74C
:10105C00C1F34F0211F0010F01D0013292B2920292
:10106C0092B2C3F8002484E730F825309BB2ADF877
:10107C000430BDF8043013F4004F35D1BDF8043002
:10108C0013F0800F3FF41EAF226832F825309BB26C
:10109C0023F4E14323F070039BB222F8253004EBD8
:1010AC00451393F83230002B40F0B2802068B0F832
:1010BC00503004EB451292F8282003EBC2030233A4
:1010CC0000EB4303D3F80034C3F30903AA1C04EB6D
:1010DC0042125360002B00F0C68004EB45118A8D40
:1010EC00C96B01F081FBBEE030F8253023F07003B2
:1010FC001B051B0D20F8253004EB451393F83232F9
:10110C00D3B92068B0F8503004EB451292F828227D
:10111C0003EBC203063300EB4303B3F80064C6F3DE
:10112C00090686B304EB45113346B1F82C22D1F8ED
:10113C003C1201F0CBFC26E0206804EB451393F83D
:10114C00282230F8223013F4804F42D0B0F85030BF
:10115C0003EBC203023300EB4303B3F80064C6F3A2
:10116C00090666BB226804EB451393F8281232F883
:10117C00213023F0F0031B051B0D43F4004343F017
:10118C00C00322F8213005F112035B01E1184A6813
:10119C0032444A6004EB4511D1F83C223244C1F888
:1011AC003C22E3581BB1D1F838128E4228D204EB02
:1011BC00451393F82812204602F02AFC5EE704EB54
:1011CC0045113346B1F82E22D1F83C1201F07EFCC9
:1011DC00C8E7B0F8503003EBC203063300EB43030F
:1011EC00B3F80064C6F30906002EBBD004EB45111E
:1011FC003346B1F83022D1F83C1201F067FCB1E76C
:10120C0004EB451191F828122046FFF70FFE35E745
:10121C00206804EB451393F8282030F8223013F0A3
:10122C00400F46D0B0F8503003EBC203023300EB52
:10123C004303D3F80034C3F30903AA1C04EB421292
:10124C0053607BBB226804EB451393F8281032F8EB
:10125C00213023F0F0031B051B0D43F4404343F0F6
:10126C00800322F821302268B2F8503004EB45108C
:10127C0090F8281003EBC103023302EB4303D3F8BD
:10128C000024C2F30902AB1C5B01E1184A60C16B7C
:10129C000A44C263E35823BB90F82810204602F09E
:1012AC00C1FB0FE604EB4511CA8DC96B01F09CFA2A
:1012BC00C8E7B0F8503003EBC203063300EB43032E
:1012CC00D3F80034C3F30903AA1C04EB4212536095
:1012DC00002BB7D004EB45110A8EC96B01F084FAD0
:1012EC00B0E704EB451595F828102046FFF7C4FD30
:1012FC00E8E5002002B070BD10B50446006801F0AE
:10130C006EFA10F4004F45D1206801F068FA10F421
:10131C00806F43D1206801F062FA10F4804F08D03E
:10132C002268B2F844309BB223F480439BB2A2F8FB
:10133C004430206801F053FA10F4005F08D02268A2
:10134C00B2F844309BB223F400539BB2A2F8443061
:10135C00206801F044FA10F4805F30D1206801F06D
:10136C003EFA10F4006F49D1206801F038FA10F4FD
:10137C00007F64D1206801F032FA10F4807F08D02D
:10138C002268B2F844309BB223F480739BB2A2F86B
:10139C00443010BD2046FFF78DFDB5E72268B2F84A
:1013AC0044309BB223F480639BB2A2F844302046B5
:1013BC0002F047FB00212046FFF7D4FCAAE7226885
:1013CC00B2F840309BB223F004039BB2A2F8403039
:1013DC002268B2F840309BB223F008039BB2A2F80B
:1013EC004030204602F04AFB2268B2F844309BB2EF
:1013FC0023F480539BB2A2F84430AFE72268B2F8D2
:10140C00403043F00803A2F840302268B2F8443070
:10141C009BB223F400639BB2A2F844302268B2F86A
:10142C00403043F00403A2F84030206801F0D7F9B3
:10143C0010F4805F98D1204602F010FB94E72268EC
:10144C00B2F844309BB223F400739BB2A2F8443040
:10145C00204602F0F0FA8DE738B54AB2002A1BDBC1
:10146C004B0103F50A73034401249C7001F07F05C2
:10147C001D70D20F5A7090F82824A24218D004463E
:10148C00012280F828241946006801F01EF94DB19C
:10149C00002084F8280438BD01F07F035B01283359
:1014AC000344E1E704F22C41206801F09BF9EFE7DB
:1014BC000220F0E710B54AB2002A1ADB4B0103F503
:1014CC000A73034400249C7001F07F011970D20F41
:1014DC005A7090F82824012A11D00446012280F871
:1014EC0028241946006801F027F9002084F8280404
:1014FC0010BD01F07F035B0128330344E2E70220B7
:10150C00F6E711F0800F0CD001F07F014901283172
:10151C0001445AB101228A72CB801B0C0B81002032
:10152C007047490101F50A710144F2E78A728B8018
:10153C00F5E7000082B0084B1B68084AA2FB0323A6
:10154C005B0A00FB03F0019000BF019B5A1E019245
:10155C00002BF9D102B0704718010020D34D621056
:10156C0070B582B00446036813F0010F2CD0AB4B5E
:10157C005B6803F00C03042B1DD0A84B5B6803F0D5
:10158C000C03082B12D06368B3F5803F41D0002BBD
:10159C0055D103F1804303F504331A6822F48032E9
:1015AC001A601A6822F480221A6037E09B4B5B6841
:1015BC0013F4803FE7D0994B1B6813F4003F03D022
:1015CC006368002B00F0AE81236813F0020F76D015
:1015DC00924B5B6813F00C0F5FD0904B5B6803F081
:1015EC000C03082B54D02369002B00F08A808C4B01
:1015FC0001221A60FFF7E4F80546884B1B6813F0CC
:10160C00020F75D1FFF7DCF8401B0228F5D9032037
:10161C008BE1824A136843F480331360636843B3ED
:10162C00FFF7CEF805467D4B1B6813F4003FCBD17A
:10163C00FFF7C6F8401B6428F5D9032075E1B3F514
:10164C00A02F09D0754B1A6822F480321A601A68E0
:10165C0022F480221A60E1E703F18043A3F53C33C6
:10166C001A6842F480221A601A6842F480321A60B6
:10167C00D4E7FFF7A5F80546684B1B6813F4003F49
:10168C00A2D0FFF79DF8401B6428F5D903204CE14C
:10169C00624B5B6813F4803FA5D1604B1B6813F061
:1016AC00020F04D02369012B01D001203DE15B4ADC
:1016BC00136823F0F803616943EAC10313602368DC
:1016CC0013F0080F32D0A369002B5BD0554B0122CD
:1016DC001A60FFF775F80546504B5B6A13F0020F62
:1016EC0021D1FFF76DF8401B0228F5D903201CE12E
:1016FC004A4A136823F0F803616943EAC103136093
:10170C00DDE7474B00221A60FFF75AF80546434BBA
:10171C001B6813F0020FD2D0FFF752F8401B0228BF
:10172C00F5D9032001E10120FFF704FF236813F032
:10173C00040F00F09780394BDB6913F0805F33D1D5
:10174C00364BDA6942F08052DA61DB6903F0805380
:10175C000193019B0125344B1B6813F4807F25D02A
:10176C00E368012B36D0002B4CD103F1804303F5F9
:10177C0004331A6A22F001021A621A6A22F0040275
:10178C001A622CE0274B00221A60FFF719F8054665
:10179C00224B5B6A13F0020FC8D0FFF711F8401B05
:1017AC000228F5D90320C0E00025D4E71E4A1368AF
:1017BC0043F480731360FFF703F806461A4B1B685B
:1017CC0013F4807FCCD1FEF7FBFF801B6428F5D986
:1017DC000320AAE0114A136A43F001031362E36881
:1017EC0073B3FEF7EDFF06460C4B1B6A13F0020FAA
:1017FC0037D1FEF7E5FF801B41F288339842F3D9CD
:10180C00032092E0052B11D0044B1A6A22F001023E
:10181C001A621A6A22F004021A62E0E7001002400F
:10182C00000042428004424200700040414B1A6A60
:10183C0042F004021A621A6A42F001021A62CEE7FE
:10184C00FEF7BEFF06463B4B1B6A13F0020F08D097
:10185C00FEF7B6FF801B41F288339842F3D9032080
:10186C0063E0E5B9E369002B5ED0324A526802F0BE
:10187C000C02082A5BD0022B17D02F4B00221A60C7
:10188C00FEF79EFF04462B4B1B6813F0007F47D0DE
:10189C00FEF796FF001B0228F5D9032045E0254AE8
:1018AC00D36923F08053D361DCE7234B00221A6009
:1018BC00FEF786FF05461F4B1B6813F0007F06D012
:1018CC00FEF77EFF401B0228F5D903202DE0236A8A
:1018DC00B3F5803F1AD017494B6823F47413226A6E
:1018EC00606A024313434B60134B01221A60FEF7EC
:1018FC0067FF04460F4B1B6813F0007F0ED1FEF7F9
:10190C005FFF001B0228F5D903200EE0094A53683B
:10191C0023F40033A1680B435360DCE7002004E0A0
:10192C00002002E0012000E0002002B070BD012088
:10193C00FBE700BF001002406000424210B487B0C9
:10194C00164C94E80F000DF1180C0CE90F00238ACB
:10195C00ADF80430124B5B6803F00C02082A1AD164
:10196C00C3F38342624412F8102C13F4803F05D168
:10197C000C4800FB02F007B010BC7047084B5B68CA
:10198C00C3F34043634413F8143C074800FB02F0D4
:10199C00B0FBF3F0EFE70448EDE700BF204C000884
:1019AC000010024000093D0000127A00594B1B68E0
:1019BC0003F007038B420CD2564A136823F007033B
:1019CC000B431360136803F007038B4201D0012013
:1019DC00704770B5036813F0020F06D04E4A536877
:1019EC0023F0F0038468234353600C4605460368D8
:1019FC0013F0010F52D04368012B23D0022B28D0B7
:101A0C00454A126812F0020F00F0828042494A687F
:101A1C0022F0030213434B60FEF7D2FE06466B68BE
:101A2C00012B1DD0022B2AD03B4B5B6813F00C0F03
:101A3C0034D0FEF7C5FE801B41F288339842F3D9AF
:101A4C00032064E0344A126812F4003FDED1012016
:101A5C005DE0314A126812F0007FD7D1012056E0C8
:101A6C002D4B5B6803F00C03042B17D0FEF7A8FE7C
:101A7C00801B41F288339842F2D9032047E0264B71
:101A8C005B6803F00C03082B08D0FEF799FE801B53
:101A9C0041F288339842F2D9032038E01D4B1B6881
:101AAC0003F00703A3420CD91A4A136823F0070367
:101ABC0023431360136803F00703A34201D00120F2
:101ACC0025E02B6813F0040F06D0134A536823F457
:101ADC00E063E9680B4353602B6813F0080F07D0E1
:101AEC000D4A536823F46053296943EAC1035360D8
:101AFC00FFF724FF084B5B68C3F30313074AD35C5F
:101B0C00D840074B18600020FEF718FE002070BD6F
:101B1C000120FCE70020024000100240344C000879
:101B2C0018010020014B1868704700BF18010020F5
:101B3C0008B5FFF7F7FF044B5B68C3F30223034AB6
:101B4C00D35CD84008BD00BF00100240444C0008D4
:101B5C0008B5FFF7E7FF044B5B68C3F3C223034AE6
:101B6C00D35CD84008BD00BF00100240444C0008B4
:101B7C0070B582B00446036813F0010F34D03E4BAD
:101B8C00DB6913F0805F48D13B4BDA6942F080523D
:101B9C00DA61DB6903F080530193019B0125374B1C
:101BAC001B6813F4807F3AD0334B1B6A13F44073D9
:101BBC0011D0626802F440729A420CD02E4A136A19
:101BCC0023F440702E4901260E6000260E60106230
:101BDC0013F0010F37D1284A136A23F4407361685C
:101BEC000B431362002D3FD1236813F0020F06D074
:101BFC00214A536823F44043A1680B435360236884
:101C0C0013F0100F35D01C4A536823F48003E1689D
:101C1C000B435360002002B070BD0025BFE7174A8C
:101C2C00136843F480731360FEF7CAFD0646134B2A
:101C3C001B6813F4807FB7D1FEF7C2FD801B6428AC
:101C4C00F5D90320E7E7FEF7BBFD06460A4B1B6AF6
:101C5C0013F0020FBFD1FEF7B3FD801B41F28833A6
:101C6C009842F3D90320D6E7D36923F08053D3618C
:101C7C00BAE70020CFE700BF001002400070004020
:101C8C00400442420268D36823F49073D360026824
:101C9C00536923F001035361202380F83A307047D5
:101CAC0090F83930DBB2212B2AD18368B3F5805FF1
:101CBC0016D0036A5A1C02621A7803685A60C38CE5
:101CCC00013B9BB2C384EBB90268D36823F0800359
:101CDC00D3600268D36843F04003D36000207047A0
:101CEC00036A1B880268C3F30803536003691BB9BA
:101CFC00036A02330362E2E7036A01330362DEE73D
:101D0C0002207047002070472DE9F8430546026811
:101D1C00136923F44053C1680B4313618368026950
:101D2C001343426913430168CA6822F4B05222F08B
:101D3C000C021343CB600268536923F4407381692E
:101D4C000B4353610268594B9A4257D0FFF7F0FE90
:101D5C0000EB800000EB80006C68A400B0FBF4F496
:101D6C00534FA7FB043464092601FFF7E1FE00EB97
:101D7C00800000EB80006C68A400B0FBF4F9FFF766
:101D8C00D7FE00EB800000EB80006C68A400B0FB79
:101D9C00F4F4A7FB043464094FF0640808FB1494B2
:101DAC0024013234A7FB0434640904F0F0043444F5
:101DBC00FFF7BEFE00EB800000EB80006E68B60003
:101DCC00B0FBF6F6FFF7B4FE00EB800000EB8000F2
:101DDC006B689B00B0FBF3F0A7FB0030400908FBDD
:101DEC0010684FEA081808F13208A7FB0837C7F348
:101DFC0043172B6827449F60BDE8F883FFF7A8FEC4
:101E0C0000EB800000EB80006C68A400B0FBF4F4E5
:101E1C00274FA7FB043464092601FFF799FE00EB5A
:101E2C00800000EB80006C68A400B0FBF4F9FFF7B5
:101E3C008FFE00EB800000EB80006C68A400B0FB10
:101E4C00F4F4A7FB043464094FF0640808FB149401
:101E5C0024013234A7FB0434640904F0F004344444
:101E6C00FFF776FE00EB800000EB80006E68B6009A
:101E7C00B0FBF6F6FFF76CFE00EB800000EB800089
:101E8C006B689B00B0FBF3F0A7FB0030400908FB2C
:101E9C0010684FEA081808F13208A7FB0837C7F397
:101EAC0043172B6827449F60A6E700BF003801400A
:101EBC001F85EB5158B310B5044690F839300BB36D
:101ECC00242384F839302268D36823F40053D36078
:101EDC002046FFF719FF2268136923F4904313611E
:101EEC002268536923F02A0353612268D36843F4B0
:101EFC000053D3600020E063202384F8393084F849
:101F0C003A3010BD80F8383001F0C8FCD8E7012019
:101F1C00704778B110B50446242380F8393001F0AD
:101F2C00F3FC0020E06384F8390084F83A0084F86C
:101F3C00380010BD0120704790F83A30DBB2202BEE
:101F4C0020D109B312B390F83830012B20D0816224
:101F5C008285C2850023C363222280F83A2080F850
:101F6C0038300168CA6842F48072CA6001684A69F4
:101F7C0042F001024A610168CA6842F02002CA605C
:101F8C0018467047022070470120704701207047A7
:101F9C000220704708B50168CB6823F04003CB6082
:101FAC00202380F8393001F03BFB002008BD08B538
:101FBC0090F83A30DBB2222B45D18368B3F5805FC1
:101FCC000ED0036903BB03685A68836A591C81628B
:101FDC001A70C38D013B9BB2C385F3B1002033E073
:101FEC00826A036943B903685B68C3F3080313800F
:101FFC00836A02338362ECE703685B68DBB21380AD
:10200C00836A01338362E4E703685B68826A511C6C
:10201C00816203F07F031370DBE70268D36823F05F
:10202C002003D3600268D36823F48073D360026802
:10203C00536923F001035361202380F83A3001F0F7
:10204C00C7FA002000E0022008BD704710B5044616
:10205C0002681368D168526913F00F0005D113F0B0
:10206C00200F02D011F0200F53D1002867D012F0AE
:10207C00010202D111F4907F61D013F0010F06D050
:10208C0011F4807F03D0E06B40F00100E06313F0AB
:10209C00040F04D01AB1E06B40F00200E06313F0BF
:1020AC00020F04D01AB1E06B40F00400E06313F0AF
:1020BC00080F04D01AB1E26B42F00802E263E26B43
:1020CC00002A48D013F0200F02D011F0200F24D199
:1020DC0023685B6903F04003E26B12F0080F00D138
:1020EC003BB32046FFF7CEFD23685A6912F0400F30
:1020FC001BD05A6922F040025A61636B8BB11A4AA9
:10210C005A63606BFEF700FC28B3606B436B984717
:10211C0021E02046FFF74BFF1DE02046FFF747FF6D
:10212C00D6E72046FFF791FF15E02046FFF78DFF1D
:10213C0011E02046FFF789FF0023E3630BE013F067
:10214C00800F02D011F0800F06D113F0400F02D097
:10215C0011F0400F04D110BD2046FFF7A1FDFAE7A6
:10216C002046FFF717FFF6E77921000808B5406A0B
:10217C000023C385C384FFF768FF08BD84B001A8A2
:10218C0080E80E00002004B07047B0F8403043F4F3
:10219C003F43A0F8403000207047B0F8403023F4A3
:1021AC0074535B045B0CA0F8403000207047002097
:1021BC00704784B038B505AC84E80E000123A0F854
:1021CC0040300024A0F84040A0F84440A0F8504013
:1021DC00FFF7DBFF2046BDE8384004B0704710B471
:1021EC00CB78032B0FD8DFE803F0026D54600A782C
:1021FC0030F822309BB223F4EC4323F0700343F409
:10220C00007320F822300A7830F8223023F0F003E3
:10221C001B051B0D134343F4004343F0800320F8CC
:10222C0022308B7A002B40F0AF804B78002B56D0AD
:10223C008A885208B0F850300C7803EBC40300EBDA
:10224C0043035200C3F800240A7830F8223013F00C
:10225C00400F0BD030F8223023F0F0031B051B0D80
:10226C0043F4004343F0C00320F822300A7830F8DE
:10227C0022309BB223F4E04323F0400383F020038D
:10228C0043F4004343F0800320F82230002010BCBC
:10229C0070470A7830F822309BB223F4EC4323F0D9
:1022AC0070039BB220F82230ADE70A7830F8223068
:1022BC009BB223F4EC4323F0700343F4C06320F887
:1022CC002230A0E70A7830F822309BB223F4EC439A
:1022DC0023F0700343F4806320F8223093E78A885C
:1022EC005208B0F850300C7803EBC403043300EB05
:1022FC0043035200C3F80024B0F850300A7803EBC3
:10230C00C203063300EB43030C693E2C30D9C4F3F3
:10231C004F1214F01F0F01D1013A92B26FEAC26250
:10232C006FEA524292B2C3F800240A7830F8223095
:10233C0013F4804F0BD030F8223023F0F0031B0540
:10234C001B0D43F4404343F0800320F822300A78FD
:10235C0030F822309BB223F4804323F0700383F4D3
:10236C00405343F4004343F0800320F822308DE7C0
:10237C00C4F34F0214F0010F01D0013292B2920259
:10238C0092B2C3F80024D0E70A7830F8223023F454
:10239C00F8731B051B0D43F4014343F0800320F835
:1023AC002230CA885208B0F850300C7803EBC403C2
:1023BC0000EB43035200C3F800240A895208B0F81A
:1023CC0050300C7803EBC403043300EB430352008E
:1023DC00C3F800244B78002B4BD10A7830F822300C
:1023EC0013F4804F0BD030F8223023F0F0031B0590
:1023FC001B0D43F4404343F0800320F822300A784D
:10240C0030F8223013F0400F0BD030F8223023F08C
:10241C00F0031B051B0D43F4004343F0C00320F8ED
:10242C0022300A7830F8223023F0F0031B051B0D04
:10243C0043F4004343F0C00320F822300A7830F80C
:10244C0022309BB223F4804323F0700383F4405377
:10245C0048F28004234320F822300A7830F82230E6
:10246C009BB223F4E04323F04003234320F82230B3
:10247C000CE70A7830F8223013F4804F0BD030F888
:10248C00223023F0F0031B051B0D43F4404343F0B3
:10249C00800320F822300A7830F8223013F0400FF5
:1024AC000BD030F8223023F0F0031B051B0D43F446
:1024BC00004343F0C00320F822300A7830F8223071
:1024CC0023F0F0031B051B0D43F4404343F0800342
:1024DC0020F822300B7830F8232092B222F4E0421C
:1024EC0022F0400248F28004224320F823200A788C
:1024FC0030F822309BB223F4804323F07003234343
:10250C0020F82230C2E68B7A002B44D14B780BB3E7
:10251C000A7830F8223013F0400F0BD030F822300C
:10252C0023F0F0031B051B0D43F4004343F0C003E1
:10253C0020F822300A7830F822309BB223F4E043A2
:10254C0023F0400343F4004343F0800320F822308F
:10255C00002070470A7830F8223013F4804F0BD0EB
:10256C0030F8223023F0F0031B051B0D43F44043DD
:10257C0043F0800320F822300A7830F822309BB2E6
:10258C0023F4804323F0700343F4004343F08003AF
:10259C0020F82230DCE710B44B78002B4BD10A78B2
:1025AC0030F8223013F4804F0BD030F8223023F067
:1025BC00F0031B051B0D43F4404343F0800320F84C
:1025CC0022300A7830F8223013F0400F0BD030F85C
:1025DC00223023F0F0031B051B0D43F4004343F0A2
:1025EC00C00320F822300A7830F8223023F0F003B0
:1025FC001B051B0D43F4004343F0C00320F82230AD
:10260C000B7830F8232092B222F4804222F0700230
:10261C0048F28004224320F823200A7830F8223034
:10262C009BB223F4E04323F04003234320F82230F1
:10263C00002010BC70470A7830F8223013F4804F19
:10264C000BD030F8223023F0F0031B051B0D43F4A4
:10265C00404343F0800320F822300A7830F82230CF
:10266C0013F0400F0BD030F8223023F0F0031B0591
:10267C001B0D43F4004343F0C00320F822300A78CA
:10268C0030F8223023F0F0031B051B0D43F44043BC
:10269C0043F0800320F822300B7830F8232092B2DC
:1026AC0022F4E04222F0400248F28004224320F857
:1026BC0023200A7830F822309BB223F4804323F095
:1026CC007003234320F82230B2E70A788AB14B78A2
:1026DC0013BB30F822309BB223F4804323F07003F9
:1026EC0083F4805343F4004343F0800320F82230FA
:1026FC0010E030F822309BB223F4804323F04003E7
:10270C0083F4805383F0100343F4004343F08003BD
:10271C0020F822300020704730F822309BB223F48E
:10272C00E04323F0400383F0100343F4004343F0F1
:10273C00800320F82230EDE74B781BB30A7830F891
:10274C00223013F0400F0BD030F8223023F0F0037E
:10275C001B051B0D43F4004343F0C00320F822304B
:10276C000A7830F822309BB223F4E04323F0400384
:10277C0083F0300343F4004343F0800320F822300D
:10278C00002070470A7830F8223013F4804F0BD0B9
:10279C0030F8223023F0F0031B051B0D43F44043AB
:1027AC0043F0800320F822300A7830F822309BB2B4
:1027BC0023F4804323F0700383F4405343F4004329
:1027CC0043F0800320F82230DAE711B98023A0F817
:1027DC004C30002070470020704700207047B0F844
:1027EC00440070470020704701335B1000EB42023D
:1027FC0002F5806263B110B40C78487844EA002486
:10280C0022F8044B0231013B002BF5D110BC704770
:10281C007047F8B58A694D78012D34D00B69934215
:10282C0080F0EA80D21A8A618A7A002A40F0F48019
:10283C00B0F850200C7802EBC402063200EB4202D6
:10284C003E2B40F2DD80C3F34F1413F01F0F01D168
:10285C00013CA4B26FEAC4646FEA5444A4B2C2F857
:10286C0000440A7830F822309BB223F4804323F0E2
:10287C00700383F4405343F4004343F0800320F887
:10288C0022300020F8BD0F69974225D2D21B8A61F5
:10289C000E4604468B7A1BB30B7830F8232012F0CB
:1028AC00400F69D0002D37D1B0F8502002EBC30394
:1028BC00063300EB43033E2F22D9C7F34F1217F018
:1028CC001F0F01D1013A92B26FEAC2626FEA524213
:1028DC0092B2C3F8002428E000238B611746D7E797
:1028EC00BBB28A884969FFF77FFFB4F85030327861
:1028FC0003EBC203023304EB4303C3F800742AE076
:10290C00C7F34F0217F0010F01D0013292B29202BD
:10291C0092B2C3F8002408E0B0F8502002EBC303D5
:10292C00023300EB4303C3F800743289BBB2716904
:10293C002046FFF759FF7378002B4DD1327834F8CD
:10294C00223023F0F0031B051B0D43F4004343F02E
:10295C00C00324F82230327834F822309BB223F4AE
:10296C00E04323F0400383F0300343F4004343F08F
:10297C00800324F8223084E71DBBB0F8502002EB12
:10298C00C303023300EB43033E2F0ED9C7F34F12A0
:10299C0017F01F0F01D1013A92B26FEAC2626FEACF
:1029AC00524292B2C3F8002414E0C7F34F0217F05E
:1029BC00010F01D0013292B2920292B2C3F80024FC
:1029CC0008E0B0F8502002EBC303023300EB4303E2
:1029DC00C3F80074F288A9E7012BBCD1327834F823
:1029EC00223023F0F0031B051B0D43F4404343F04E
:1029FC00800324F82230AEE700238B61134613E7E3
:102A0C00C3F34F0413F0010F01D00134A4B2A4029C
:102A1C00A4B2C2F8004424E7BDB9B0F850200C7839
:102A2C0002EBC402023200EB42023E2B28D9C3F364
:102A3C004F1413F01F0F01D1013CA4B26FEAC46410
:102A4C006FEA5444A4B2C2F800444A7882BBB0F88E
:102A5C0050200C7802EBC402063200EB42023E2BF3
:102A6C001AD9C3F34F1413F01F0F01D1013CA4B2B8
:102A7C006FEAC4646FEA5444A4B2C2F80044F0E6AE
:102A8C00C3F34F0413F0010F01D00134A4B2A4021C
:102A9C00A4B2C2F80044D8E7C3F34F0413F0010FFB
:102AAC0001D00134A4B2A402A4B2C2F80044D8E606
:102ABC00012A7FF4D6AEB0F850200C7802EBC40299
:102ACC00023200EB4202C2F80034CAE601335B105A
:102ADC0000EB420202F5806204E0106821F8020B60
:102AEC00013B0432002BF8D17047D0F818321BB1DF
:102AFC000020C3F8140270470220704710B5D0F8BC
:102B0C001842D0F81C325BB194F80002FF2807D0B1
:102B1C009B6894F8012221469847FF2384F80032E1
:102B2C00002010BD4323038000487047080000209C
:102B3C0043230380004870474C000020432303804C
:102B4C0000487047900000200A230380004870471B
:102B5C00D400002038B50446D0F8185201F064F8BF
:102B6C00C5F80C02D4F818324BB1D4F81C32DB681F
:102B7C0005F50371D5F804029847002038BD0220F2
:102B8C00FCE7000070B505460C46D0F818620B78CF
:102B9C0013F0600225D0202A07D1CA883AB9D0F8A0
:102BAC001C329B68002248789847002070BD13F0B7
:102BBC00800F0BD0D0F81C329B6831466078984758
:102BCC00E2883146284600F059FCEEE74B7886F84F
:102BDC000032CB8886F80132CA88314600F063FC9B
:102BEC00E3E74B780A2BE0D10122024900F046FCC6
:102BFC00DBE700BFEC01002010B50446812100F09A
:102C0C00ACFF0121204600F0A8FF8221204600F0F5
:102C1C00A4FFD4F8183253B1D4F81C325B6898472F
:102C2C00D4F8180201F00AF80023C4F81832002076
:102C3C0010BD38B50446037C73BB4FF400730222FD
:102C4C00812100F079FF4FF400730222012120460C
:102C5C0000F072FF082303228221204600F06CFF53
:102C6C004FF4077000F0E6FF0546C4F8180248B3AD
:102C7C00D4F81C321B6898470023C5F81432C5F8E9
:102C8C001832237CA3B14023D5F80422012120461D
:102C9C0000F0BCFF002038BD40230222812100F04F
:102CAC004BFF402302220121204600F045FFD1E7D3
:102CBC004FF40073D5F804220121204600F0A6FF42
:102CCC000020E8E70120E6E719B1C0F81C1200204B
:102CDC00704702207047D0F81832C3F80812C3F8B6
:102CEC00102200207047D0F81832C3F804120020CC
:102CFC007047D0F818229AB108B5037C3BB1402339
:102D0C00D2F80422012100F081FF002008BD4FF40D
:102D1C000073D2F80422012100F078FF0020F5E7BF
:102D2C000220704798B108B50346D0F8140210B1D0
:102D3C000020C3F8140209B1C3F81012184601237D
:102D4C0080F8FC31027000F09FFE002008BD0220CC
:102D5C00704719B1C0F81412002070470220704758
:102D6C0008B500F0DBFE002008BD08B5D0F8143221
:102D7C0033B11B68984708B9002008BD0220FCE756
:102D8C000220FAE708B5D0F814325B6898470020A7
:102D9C0008BD38B5044600F50275284600F00CF95C
:102DAC000123C4F8F431B4F80E32C4F8F83194F8B5
:102DBC00081201F01F03012B0ED03BB1022B10D0D7
:102DCC0001F08001204600F0D6FE03E029462046A3
:102DDC0000F06BFA002038BD2946204600F089FA35
:102DEC00F8E72946204600F0A0FAF3E710B50446B0
:102DFC0021BB1346D0F8F421032A01D0002010BDCA
:102E0C00D0F80C11D0F8102191420CD8D0F8143213
:102E1C001B6923B190F8FC21032A00D19847204666
:102E2C0000F058FBEAE7891AC0F80C118A4228BF57
:102E3C000A4692B2194600F045FBDFE70A46D0F885
:102E4C0014329B69002BD9D090F8FC110329D5D1F1
:102E5C0011469847D2E710B50446002946D11346CF
:102E6C00D0F8F421022A05D094F80032012B39D085
:102E7C00002010BDC169026A914219D88169B1FB69
:102E8C00F2F302FB13132BB98A4203D8D0F8F831B2
:102E9C0099421AD3D4F81432DB682BB194F8FC2184
:102EAC00032A01D120469847204600F01EFBDBE7A1
:102EBC008A1AC26192B2194600F0EDFA00231A4642
:102ECC001946204600F0A2FECEE70022114600F083
:102EDC00E2FA0021C4F8F8110B460A46204600F02D
:102EEC0095FEC1E7002384F80032C1E70A46D0F80A
:102EFC0014325B69002BBBD090F8FC110329B7D1BD
:102F0C0011469847B4E738B50446402300221146D1
:102F1C0000F012FE4025C4F810512B4600228021EF
:102F2C00204600F009FE2562012384F8FC31D4F818
:102F3C0018322BB1D4F814325B68217920469847AB
:102F4C00002038BD01740020704790F8FC3180F8E7
:102F5C00FD31042380F8FC310020704790F8FD31DE
:102F6C0080F8FC310020704708B590F8FC31032B39
:102F7C0001D0002008BDD0F81432DB69002BF8D04A
:102F8C009847F6E7002302E00133DBB20130027808
:102F9C00002AF9D1184670474B88012B0BD110B57C
:102FAC000446C0F80432D0F814329B689847204687
:102FBC0000F090FA10BD70470B7803704B7843709B
:102FCC008B78CA7803EB022343800B794A7903EBA5
:102FDC00022383808B79CA7903EB0223C380704769
:102FEC0010B50446802100F0C6FD0021204600F0FB
:102FFC00C2FD10BD30B583B004460D464A88130A95
:10300C00013B062B00F28180DFE803F00413277FDD
:10301C007F637000D0F810321B680DF10601007C44
:10302C009847BDF8062012B1EB88002B71D103B084
:10303C0030BD037C43B9D0F814329B6A0DF1060005
:10304C00984702234370ECE7D0F81432DB6A0DF199
:10305C000600984702234370E3E7D2B2052A34D81E
:10306C00DFE802F0030B131B232BD0F810325B6844
:10307C000DF10601007C9847D3E7D0F810329B681D
:10308C000DF10601007C9847CBE7D0F81032DB68D5
:10309C000DF10601007C9847C3E7D0F810321B698C
:1030AC000DF10601007C9847BBE7D0F810325B6944
:1030BC000DF10601007C9847B3E7D0F810329B69FC
:1030CC000DF10601007C9847ABE72946FFF788FF16
:1030DC00ADE7037C33B9D0F814325B6B0DF106000D
:1030EC0098479EE72946FFF77BFFA0E7037C43B98F
:1030FC00D0F814321B6B0DF1060098470723437070
:10310C008FE72946FFF76CFF91E72946FFF768FF29
:10311C008DE79A4228BF1A46ADF806200146204694
:10312C0000F0ACF983E738B504468B88E3B9CB885B
:10313C00D3B98D7805F07F0590F8FC31032B0CD0BA
:10314C0080F8FE51294600F045FD204600F0C2F9FA
:10315C0035B1022384F8FC3109E0FFF741FF06E0AA
:10316C00012384F8FC3102E02046FFF739FF38BD1B
:10317C0038B504460D468978254B1970012909D8B4
:10318C0090F8FC31022B09D0032B1CD02946FFF7F9
:10319C0027FF02E02946FFF723FF38BD81B14160CC
:1031AC00032380F8FC31FFF7E0FD022803D0204612
:1031BC0000F090F9F1E729462046FFF711FFECE704
:1031CC0000F088F9E9E789B1436899421DD0D9B27A
:1031DC00FFF7D8FD0E4B197861602046FFF7C5FD4F
:1031EC0002280DD0204600F075F9D6E7022380F8AE
:1031FC00FC314160FFF7C6FD204600F06BF9CCE7CF
:10320C0029462046FFF7ECFEC7E700F063F9C4E758
:10321C00ED01002008B5CB88012B08D190F8FC31CA
:10322C00022B07D0032B0DD0FFF7DAFE01E0FFF7DE
:10323C00D7FE08BD0146002341F8083F012200F0EB
:10324C001DF9F6E70122011D00F018F9F1E708B5A8
:10325C0090F8FC31023B012B0CD80123C360D0F851
:10326C0004320BB10323C360022200F10C0100F005
:10327C0005F908BDFFF7B4FEFBE710B5044690F85E
:10328C00FC31023B012B0DD84B88012B09D10023BB
:10329C00C0F80432D0F814329B689847204600F0EE
:1032AC0019F910BDFFF79CFEFBE708B54B78092B0D
:1032BC001CD8DFE803F012181B151B09051B0F0C9B
:1032CC00FFF798FE002008BDFFF72DFFFAE7FFF788
:1032DC004FFFF7E7FFF79EFFF4E7FFF7B8FFF1E7C3
:1032EC00FFF75AFEEEE7FFF7C8FFEBE7FFF778FEB4
:1032FC00E8E738B504460D4690F8FC31032B11D1A4
:10330C000B79012B0BD8D0F814329B689847EB88BB
:10331C000BB1002038BD204600F0DCF8F9E7FFF7D0
:10332C005FFEF6E7FFF75CFEF3E738B505460C46A3
:10333C008A880B7803F06003202B05D1D0F8143267
:10334C009B689847002038BDD1B26378012B25D0FB
:10335C00002B47D0032BF5D190F8FC31022B05D074
:10336C00032B0AD02146FFF73BFEEBE70029E9D0FF
:10337C008029E7D000F0FFFBE4E7638823B919B19B
:10338C00802901D000F0F7FBD5F814329B68214658
:10339C0028469847284600F09DF8D3E790F8FC3172
:1033AC00022B05D0032B0AD02146FFF719FEC9E7E3
:1033BC000029C7D08029C5D000F0DDFBC2E76388A7
:1033CC00002BBFD111F07F0F03D1284600F082F8FB
:1033DC00B8E700F0DEFBD5F814329B68214628468E
:1033EC009847F2E790F8FC31022B05D0032B09D05B
:1033FC002146FFF7F5FDA5E711F07F0FA2D000F0F5
:10340C00BAFB9FE712F0800F11D101F07F0410344A
:10341C0000EB04140434284600F0C9FB70B10123FE
:10342C00236002222146284600F028F88AE701F0A2
:10343C007F04013400EB04140434ECE70023236014
:10344C00EFE7D0B170B50D4616460446FFF79AFD6E
:10345C000130400080B23080287003236B7002234F
:10346C0007E001345A1CD2B2E9540233DBB200211A
:10347C00A95421780029F4D170BD704710B51346BA
:10348C000222C0F8F4218361C3610A46002100F0D6
:10349C00AFFB002010BD08B513460A46002100F012
:1034AC00A7FB002008BD10B513460322C0F8F42179
:1034BC00C0F80831C0F80C310A46002100F0A6FB18
:1034CC00002010BD08B513460A46002100F09EFBF3
:1034DC00002008BD08B50423C0F8F43100231A46B7
:1034EC00194600F085FB002008BD08B50523C0F87F
:1034FC00F43100231A46194600F088FB002008BD61
:10350C0030B589B02D4B9A6942F010029A619A69D4
:10351C0002F010020092009A9A6942F020029A611D
:10352C009A6902F020020192019A9A6942F004020F
:10353C009A619A6902F004020292029A9A6942F024
:10354C0008029A619B6903F008030393039B1C4DCB
:10355C0000224FF480512846FDF77CFB4EF6FF739A
:10356C0004930324059404A92846FDF719FA48F29C
:10357C00F3730493059404A91248FDF711FA4FF65E
:10358C00FF730493059404A90F48FDF709FA4FF44F
:10359C00805304930123059300230693022307937E
:1035AC0004A92846FDF7FCF904230493059404A907
:1035BC000648FDF7F5F909B030BD00BF0010024018
:1035CC000010014000080140000C014000140140B3
:1035DC0010B50F48FEF79DFC0E4B00221A700AE046
:1035EC000C4C2378DBB20C4AD05C00F0DBFC23786B
:1035FC000133DBB22370074B1B78DBB2402BEFD0CF
:10360C00064800F0CFFC0248FEF754FC10BD00BF8A
:10361C005406002050060020D00500206C4C0008F9
:10362C0000BF7047FEE7000000B595B001220A927A
:10363C004FF480330B9300210C910E9202221192C5
:10364C0012934FF4E01313930AA8FDF789FF48BBBC
:10365C000F23059302210691002307934FF48062F8
:10366C000892099305A8FEF7A1F9F8B91023019364
:10367C000023049301A8FEF77BFAD8B9FEF752FA9F
:10368C000E4BA3FB00308009FDF712F90420FDF767
:10369C0025F9002211464FF0FF30FDF7BDF815B0AB
:1036AC005DF804FBC1210648FFF7BCFFCF2104489D
:1036BC00FFF7B8FFD6210248FFF7B4FFD34D6210D5
:1036CC00704C000808B5FCF7BFFFFDF75BF8FFF77F
:1036DC00ABFFFFF715FF00F031F900F0C1F811480E
:1036EC0000F0D4FC4FF480720F491048FEF724FC14
:1036FC000E4C4FF480720C492046FEF71DFCE38DF6
:10370C009BB2002BF4D16420FDF760F8084C4FF409
:10371C00807221460548FEF70FFC0649204600F052
:10372C0041FCE5E7804C0008D00500205406002041
:10373C00F0010020A04C000800B583B0244B9A691E
:10374C0042F001029A619A6902F001020092009A19
:10375C00DA6942F08052DA61DB6903F0805301933D
:10376C00019B0320FDF746F8002211466FF00B0079
:10377C00FDF752F8002211466FF00A00FDF74CF8E5
:10378C00002211466FF00900FDF746F800221146A1
:10379C006FF00400FDF740F8002211466FF00300B3
:1037AC00FDF73AF8002211466FF00100FDF734F8EE
:1037BC00002211464FF0FF30FDF72EF8054A5368F2
:1037CC0023F0E06343F00073536003B05DF804FB37
:1037DC0000100240000001407047FEE7FEE7FEE7E4
:1037EC00FEE770477047704708B5FCF7DDFFFDF743
:1037FC0086F808BD08B50248FDF77EFD08BD00BF80
:10380C008810002008B50248FEF720FC08BD00BF58
:10381C00540600200F4B1A6842F001021A605968D6
:10382C000D4A0A405A601A6822F0847222F48032DF
:10383C001A601A6822F480221A605A6822F4FE0276
:10384C005A604FF41F029A60044B4FF000629A606A
:10385C00704700BF001002400000FFF800ED00E0D0
:10386C0008B50B480B4B03604FF416534360002311
:10387C008360C36003610C2242618361C361FEF704
:10388C0019FB00B908BD4C210348FFF7CBFEF9E743
:10389C005406002000440040A44C00080268184B59
:1038AC009A4200D0704730B587B003F5E633DA6939
:1038BC0042F40032DA61DB6903F400330193019BBB
:1038CC000423029302230393032305930D4D02A9B2
:1038DC002846FDF765F8082302930024039404940A
:1038EC000DEB03012846FDF75BF822462146262006
:1038FC00FCF792FF2620FCF7C3FF07B030BD00BFDA
:10390C00004400400008014008B50268084B9A4288
:10391C0000D008BD074AD36923F40033D3610C21CE
:10392C000548FDF727F92620FCF7B6FFF1E700BFA5
:10393C0000440040001002400008014010B5094C42
:10394C00002209492046FFF7EDF908492046FFF708
:10395C0000FA07492046FFF7B7F92046FFF700FAAF
:10396C0010BD00BF9406002044010020E0000020A0
:10397C001C010020002070470020704710B5054C3A
:10398C0001462046FFF7AFF92046FFF7B2F90020B9
:10399C0010BD00BF9406002010B5064C002206494D
:1039AC002046FFF798F905492046FFF79CF90020BF
:1039BC0010BD00BF94060020A00C0020B808002009
:1039CC0002680E4B9A4200D0704700B583B003F5E5
:1039DC00DA33DA6942F40002DA61DB6903F40003DA
:1039EC000193019B002211461420FCF715FF1420B3
:1039FC00FCF746FF03B05DF804FB00BF005C004021
:103A0C0008B500F22C41D0F85C04FFF7C2F908BDF0
:103A1C0008B500EB4113D3F83C22D0F85C04FFF757
:103A2C00E5F908BD08B500EB4113DA6BD0F85C047E
:103A3C00FFF711FA08BD08B5D0F85C04FFF794FA4B
:103A4C0008BD10B504460121D0F85C04FFF77AFAE2
:103A5C00D4F85C04FFF757FA10BD000010B504460B
:103A6C00D0F85C04FFF771FAA36923B1024A136919
:103A7C0043F00603136110BD00ED00E008B5D0F86B
:103A8C005C04FFF76BFA08BD10B504462048C0F87B
:103A9C005C44C4F820021F4B0360082343600223DC
:103AAC0083600323C36000238361C3610362FDF75A
:103ABC00D7F830BB182300221146D4F82002FDF7AA
:103ACC0020FD582300228021D4F82002FDF719FD97
:103ADC00C02300228121D4F82002FDF712FD4FF4FF
:103AEC00887300220121D4F82002FDF70AFD4FF45F
:103AFC00807300228221D4F82002FDF702FD002001
:103B0C0010BD4FF497710448FFF78CFDD2E700BF4E
:103B1C0088100020005C0040B44C000808B5D0F8B8
:103B2C002002FDF708F918B1022803D0022008BDC5
:103B3C000020FCE70120FAE710B51C46134622468C
:103B4C00D0F82002FDF722F918B1022803D0022088
:103B5C0010BD0020FCE70120FAE708B5D0F82002E0
:103B6C00FDF73DF918B1022803D0022008BD002052
:103B7C00FCE70120FAE708B5D0F82002FDF76CFC51
:103B8C0018B1022803D0022008BD0020FCE7012058
:103B9C00FAE708B5D0F82002FDF78CFC18B1022822
:103BAC0003D0022008BD0020FCE70120FAE7D0F882
:103BBC00203211F0800F06D101F07F0103EB41118F
:103BCC0091F82A02704701F07F0103EB411191F843
:103BDC002A00704708B5D0F82002FDF7C3F818B1D9
:103BEC00022803D0022008BD0020FCE70120FAE7E0
:103BFC0008B5D0F82002FDF73FF918B1022803D020
:103C0C00022008BD0020FCE70120FAE708B5D0F837
:103C1C002002FDF70BF918B1022803D0022008BDD1
:103C2C000020FCE70120FAE708B5D0F82002FDF7E8
:103C3C001CF908BD00487047F4020020704770471B
:103C4C0012230B80004870472C01002004230B80AA
:103C5C00004870474001002008B50A4628B10549C4
:103C6C000548FFF7EEFB034808BD02490248FFF781
:103C7C00E8FBF8E7E8140020C84C000810B5044C29
:103C8C000A4621460348FFF7DCFB204610BD00BF67
:103C9C00E8140020E04C000808B50A4628B1054994
:103CAC000548FFF7CEFB034808BD02490248FFF761
:103CBC00C8FBF8E7E8140020F44C000808B50A46E5
:103CCC0028B105490548FFF7BCFB034808BD02496C
:103CDC000248FFF7B6FBF8E7E8140020044D000893
:103CEC0008B50A4628B105490548FFF7AAFB034861
:103CFC0008BD02490248FFF7A4FBF8E7E8140020CE
:103D0C00104D0008002103E00B4B5B58435004316D
:103D1C000A480B4B42189A42F6D30A4A02E0002397
:103D2C0042F8043B084B9A42F9D3FFF773FDFCF7BA
:103D3C000FFAFFF7C7FC7047BC4D000800000020CD
:103D4C00D0010020D0010020EC160020FEE700007E
:103D5C00014B1868704700BF60010020002310B5AC
:103D6C000446C0E90033836081814366C281C0E9A7
:103D7C0004338361194608225C30FCF70DFA054BBD
:103D8C0024626362044BA362044BE362044B23631F
:103D9C0010BD00BFC9400008EB40000823410008DB
:103DAC0047410008014900F085B800BF21440008D4
:103DBC0070B568254A1E55430E4605F1740100F096
:103DCC0097F8044640B10021C0E900160C30A06001
:103DDC0005F16802FCF7E0F9204670BD836910B567
:103DEC00044633BBC0E912330365124B124A1B68FD
:103DFC008262984204BF0123836100F01FF8606067
:103E0C00204600F01BF8A060204600F017F80022B6
:103E1C00E06004216068FFF7A1FF01220921A0687E
:103E2C00FFF79CFF02221221E068FFF797FF0123A6
:103E3C00A36110BD4C4C0008B13D0008F8B51B4BFC
:103E4C0007461E68B36913B93046FFF7C7FF4836FB
:103E5C00D6E90134013B03D5336833B13668F7E753
:103E6C00B4F90C506DB16834F4E704213846FFF70F
:103E7C009FFF30600028F1D10C2304463B602046A4
:103E8C00F8BD0B4B6566C4E90055A560C4E9033564
:103E9C00C4E905550822294604F15C00FCF77CF9BD
:103EAC00C4E90D55C4E91255E9E700BF4C4C0008B4
:103EBC000100FFFF2DE9F84380468946002600F1FA
:103ECC00480414B93046BDE8F883D4E90175013FC4
:103EDC0001D52468F5E7AB89012B07D9B5F90E306C
:103EEC00013303D029464046C84706436835EEE700
:103EFC0070B5CD1C25F0030508350C2D38BF0C25ED
:103F0C00002D064601DBA94203D90C2333600020A7
:103F1C0070BD00F01FFB214A1468214691B9204C5A
:103F2C0023681BB9304600F0B9F8206029463046AA
:103F3C0000F0B4F8431C24D10C233046336000F05D
:103F4C000AFBE4E70B685B1B18D40B2B0FD90B6037
:103F5C00CC18CD50304600F0FEFA04F10B00231DB6
:103F6C0020F00700C31AD3D05A42E250D0E74B6876
:103F7C008C4216BF636013600C46EBE70C46496835
:103F8C00CCE7C41C24F00304A04205D0211A30460F
:103F9C0000F084F80130CFD02560DBE7C4050020A9
:103FAC00C80500200FB40A4B13B51C6824B1A369D3
:103FBC0013B92046FFF712FF05AB049AA1682046FF
:103FCC00019300F03DFB02B0BDE8104004B0704717
:103FDC006001002070B50E46054618B183690BB917
:103FEC00FFF7FCFEAB69AC6813B92846FFF7F6FE89
:103FFC00234B9C4217D16C68A3891B071DD52369E1
:10400C00DBB1013EA36816F8011F013BA360E9B9BF
:10401C00002B2EDA22460A21284600F093F80130B4
:10402C0011D00A2011E0174B9C4201D1AC68E3E798
:10403C00154B9C4208BFEC68DEE72146284600F091
:10404C00E5F80028DDD04FF0FF3070BD002B04DA0E
:10405C00A2699A4206DC0A2904D023685A1C226001
:10406C001970CFE72246284600F06CF80130C9D110
:10407C00E9E70A2023685A1C22601870E5E700BFA4
:10408C00404D0008604D0008204D0008024B0146D1
:10409C001868FFF79FBF00BF6001002038B50023F0
:1040AC00054C054608462360FCF784F9431C02D1F5
:1040BC00236803B12B6038BDE816002010B50C4600
:1040CC00B1F90E1000F058FD0028ABBF636DA38949
:1040DC001B1823F48053ACBF6365A38110BD2DE97D
:1040EC00F0411F468B890546DB050C46164605D567
:1040FC0002230022B1F90E1000F0B6F9A389324662
:10410C0023F48053A381B4F90E103B462846BDE836
:10411C00F04100F069B810B50C46B1F90E1000F082
:10412C00A3F9431CA38915BF606523F4805343F4A2
:10413C008053A38118BFA38110BDB1F90E1000F0FC
:10414C00D3B80000F8B50E461446054618B183697D
:10415C000BB9FFF743FE214B9C422AD16C68A36933
:10416C00A360A3891A072ED5236963B3236920683A
:10417C00F6B2C01A63693746834204DC21462846EE
:10418C0000F048F928BBA3680130013BA360236809
:10419C005A1C22601E706369834204D0A389DB071A
:1041AC0019D50A2E17D12146284600F033F990B1C3
:1041BC000FE00B4B9C4201D1AC68D0E7094B9C4201
:1041CC0008BFEC68CBE72146284600F01FF8002812
:1041DC00CCD04FF0FF373846F8BD00BF404D00083B
:1041EC00604D0008204D000838B5054608461146BC
:1041FC000022054C22601A46FCF787F8431C02D1BA
:10420C00236803B12B6038BDE8160020324B70B523
:10421C001D6806460C4625B1AB6913B92846FFF755
:10422C00DDFD2E4B9C420FD16C68B4F90C309AB268
:10423C0015072CD4D00611D40922326043F0400368
:10424C00A3814FF0FF303EE0254B9C4201D1AC687E
:10425C00EBE7244B9C4208BFEC68E6E7510712D50C
:10426C00616B41B104F14403994202D0304600F035
:10427C0073F900236363A38923F02403A381002330
:10428C00636023692360A38943F00803A381236936
:10429C004BB9A38903F42073B3F5007F03D02146F7
:1042AC00304600F017F9A28912F001030CD000235C
:1042BC00A36063695B42A361236953B9B4F90C3001
:1042CC0013F08000BAD170BD920758BF6369A36028
:1042DC00F2E70020F7E700BF60010020404D000826
:1042EC00604D0008204D000838B50023054C0546EC
:1042FC0008462360FCF738F8431C02D1236803B14D
:10430C002B6038BDE81600208A892DE9F04105465E
:10431C0010070C4658D44B68002B05DC0B6C002B9B
:10432C0002DC0020BDE8F081E66A002EF9D0002303
:10433C0012F480522F68216A2B6032D0606DA389F1
:10434C005A0705D56368C01A636B0BB1236CC01A8E
:10435C0000230246E66A216A2846B047431CA3891B
:10436C0006D129681D2948D8294ACA40D60744D500
:10437C00002262602269D904226004D5421C01D15A
:10438C002B6803B96065616B2F600029C9D004F1FB
:10439C004403994202D0284600F0DEF80020606306
:1043AC00C0E701232846B047411CC8D12B68002B1D
:1043BC00C5D01D2B01D0162B01D12F60B1E7A389DD
:1043CC0043F04003A381ADE70F69002FA9D09307F9
:1043DC0018BF00230E6808BF4B69A6EB07080F60D7
:1043EC008B60B8F1000F9CDD43463A46216A2846A3
:1043FC00A66AB047002806DCA38943F04003A381DA
:10440C004FF0FF308EE70744A8EB0008E9E700BF48
:10441C000100402038B50B6905460C46DBB118B1DC
:10442C0083690BB9FFF7DAFC0C4B9C4209D16C6821
:10443C00B4F90C307BB121462846BDE83840FFF773
:10444C0063BF074B9C4201D1AC68F1E7054B9C4222
:10445C0008BFEC68ECE7002038BD00BF404D0008F9
:10446C00604D0008204D000838B505460846114639
:10447C000022054C22601A46FBF735FF431C02D183
:10448C00236803B12B6038BDE816002070B50E46CA
:10449C00B1F90E1096B0002914461D4607DA002318
:1044AC002B60B3891A0610D44FF480630EE06A4671
:1044BC0000F074FB0028F2DB019A02F47042A2F5C2
:1044CC0000535A425A412A60EEE7402300202360F1
:1044DC0016B070BD8B8973B59D0706460C4607D583
:1044EC0004F14703236023610123636102B070BDB3
:1044FC0001AB6A46FFF7CAFF009905463046FFF745
:10450C00F7FC48B9B4F90C309A05EFD423F0030347
:10451C0043F00203A381E3E70D4BB362A389206050
:10452C0043F08003A381009B20616361019B5BB11D
:10453C00B4F90E10304600F043FB28B1A38923F0E8
:10454C00030343F00103A381A3891D43A581CDE798
:10455C00B13D00087047704738B50546002943D077
:10456C0051F8043C0C1F002BB8BFE418FFF7F2FF06
:10457C001E4A1368104633B9636014602846BDE8C0
:10458C003840FFF7E8BFA3420BD921686218934269
:10459C0001BF1A685B685218226063600460EDE723
:1045AC0013465A680AB1A242FAD919685818A0429F
:1045BC000BD120680144581882421960DED1106872
:1045CC005268014419605A60D8E702D90C232B6059
:1045DC00D4E7206821188A4201BF11685268091873
:1045EC00216062605C60C9E738BD00BFC405002073
:1045FC00936810B4013B002B936007DA9469A342D3
:10460C0001DB0A2902D110BCFFF79CBD1368581CB2
:10461C0010601970084610BC7047F8B506460F4676
:10462C001446D518AC4201D1002007E03A4614F8E4
:10463C00011B3046FFF7DCFF431CF3D1F8BD000033
:10464C002DE9F04F9DB00C4617460393064618B162
:10465C0083690BB9FFF7C2FB7B4B9C4257D1746843
:10466C00A38918075DD52369002B5AD00023099321
:10467C0020238DF8293030234FF0010B8DF82A3090
:10468C00B846454615F8013B0BB1252B54D1B8EB78
:10469C00070A0BD053463A4621463046FFF7BDFF7A
:1046AC00013000F0C280099B5344099398F8003004
:1046BC00002B00F0BA8000234FF0FF32CDE9052328
:1046CC00049307938DF853301A93A846052218F8D3
:1046DC00011B5E4800F084FA049B78BBD90644BFEA
:1046EC0020228DF853201A0744BF2B228DF853201B
:1046FC002A782A2A2AD0A84600200A25079A414659
:10470C0011F8013B303B092B69D960B324E0504BC5
:10471C009C4201D1B468A3E74E4B9C4208BFF4689D
:10472C009EE721463046FFF771FD00289ED04FF0E2
:10473C00FF301DB0BDE8F08FA846A2E7434A4546BE
:10474C00801A0BFA00F018430490BEE7039A111D6F
:10475C0012680391002A01DB079204E0524243F0F5
:10476C0002030792049398F800302E2B0ED198F880
:10477C0001302A2B38D1039B08F102081A1D1B6843
:10478C000392002BB8BF4FF0FF330593324D032239
:10479C0098F80010284600F023FA40B14023401B43
:1047AC0003FA00F0049B08F101080343049398F802
:1047BC0000100622294808F101078DF8281000F096
:1047CC000FFA002837D0264B1BBB039B073323F073
:1047DC00070308330393099B4B44099350E705FBEC
:1047EC000232012088468AE700230A25194608F17F
:1047FC0001080593404610F8012B303A092A03D9D9
:10480C00002BC3D00591C1E705FB01210123804694
:10481C00F0E703AB00932246124B04A93046AFF3EA
:10482C000080B0F1FF3F8146D5D1A3895B063FF5EF
:10483C007EAF09987DE703AB00932246094B04A990
:10484C00304600F087F8ECE7404D0008804D00083A
:10485C00604D0008204D0008864D00088A4D000868
:10486C0000000000274600082DE9F04791461F463E
:10487C008A680B6906469342B8BF1346C9F80030E4
:10488C0091F843200C46DDF8208012B10133C9F8B1
:10489C0000302368990642BFD9F800300233C9F8BA
:1048AC000030256815F0060507D104F1190AE368F4
:1048BC00D9F800209B1AAB4229DC94F843302268CB
:1048CC00003318BF012392062ED404F1430239465B
:1048DC003046C047013021D02368E56803F0060359
:1048EC00042B18BF0025D9F800204FF0000908BF91
:1048FC00AD1AA368226908BF25EAE5759342C4BFC7
:10490C009B1AED181A344D451AD1002008E00123EA
:10491C00524639463046C047013003D14FF0FF3084
:10492C00BDE8F0870135C2E73020E11881F843007B
:10493C005A1C94F845102244023382F84310C4E701
:10494C000123224639463046C0470130E6D009F1F2
:10495C000109D8E72DE9F04301F1430C0C46097E1F
:10496C0085B06E291746064698460C9A00F0B3801F
:10497C0022D8632936D00AD8002900F0B9805829EA
:10498C0000F0838004F1420584F8421032E064297F
:10499C0001D06929F6D120681368050603F10401DA
:1049AC002AD51B681160002B03DA2D225B4284F898
:1049BC0043206F480A2239E0732900F09D8008D803
:1049CC006F2920D07029DDD1236843F020032360A8
:1049DC0003E0752917D07829D4D17823654884F859
:1049EC00453055E0136804F14205191D1B68116030
:1049FC0084F8423001238CE01B6810F0400F1160EA
:104A0C0018BF1BB2CFE713682568181D1060280665
:104A1C0001D51B6802E06806FBD51B886F2914BF03
:104A2C000A2208225248002184F843106568002DA0
:104A3C00A560C0F29580216821F004012160002B53
:104A4C003DD1002D40F08E806546082A0BD123689D
:104A5C00DB0708D5236962689A42DEBF302305F86C
:104A6C00013C05F1FF35ACEB05032361CDF800806B
:104A7C003B4603AA21463046FFF7F6FE01304DD1E6
:104A8C004FF0FF3005B0BDE8F083394884F845108D
:104A9C00136821681D1D1B6815600A060BD5CA0713
:104AAC0044BF41F0200121601BB9226822F0200292
:104ABC0022601022B7E74D0648BF9BB2EFE7654670
:104ACC00B3FBF2F102FB1133C35C05F8013D0B465D
:104ADC000029F5D1B9E713682568181D61691060C4
:104AEC0028061B6801D5196002E06A06FBD51980FF
:104AFC00002365462361B9E71368191D11601D6811
:104B0C0062680021284600F06BF808B1401B606019
:104B1C0063682361002384F84330A7E723692A469E
:104B2C0039463046C0470130AAD023689B0713D4BE
:104B3C00E068039B9842B8BF1846A3E701234A4696
:104B4C0039463046C04701309AD00135E368039AA4
:104B5C009B1AAB42F2DCEBE7002504F11909F5E7EF
:104B6C00002BACD1037804F1420584F842306CE799
:104B7C00914D0008A24D000838B50546084611466F
:104B8C000022054C22601A46FBF756FB431C02D14F
:104B9C00236803B12B6038BDE816002038B500231C
:104BAC00064C0546084611462360FBF748FC431C9F
:104BBC0002D1236803B12B6038BD00BFE81600207A
:104BCC0038B50023054C054608462360FBF79AFDD3
:104BDC00431C02D1236803B12B6038BDE8160020BA
:104BEC0010B5C9B202449042034601D1002303E040
:104BFC001C7801308C42F6D1184610BDF8B500BFB8
:104C0C00F8BC08BC9E467047F8B500BFF8BC08BCA1
:044C1C009E467047F9
:104C200002030405060708090A0B0C0D0E0F1010ED
:104C30000102000000000000000000000102030467
:104C400006070809000000000102030464010020B7
:104C50003A73656D69686F7374696E672D66656117
:104C60007475726573003A74740000000A0D0000D8
:104C70002E2E2F5372632F6D61696E2E630000001C
:104C800053544D33322042617365642047505320A2
:104C900073796E6368726F6E697A61746F72000007
:104CA0000A0000002E2E2F5372632F7573617274E9
:104CB0002E6300002E2E2F5372632F757362645F74
:104CC000636F6E662E63000053544D333220566975
:104CD000727475616C20436F6D506F7274000000C8
:104CE00053544D6963726F656C656374726F6E695E
:104CF000637300003030303030303030303031418C
:104D00000000000043444320436F6E666967000063
:104D100043444320496E7465726661636500000018
:104D20000000000000000000000000000000000083
:104D30000000000000000000000000000000000073
:104D40000000000000000000000000000000000063
:104D50000000000000000000000000000000000053
:104D60000000000000000000000000000000000043
:104D70000000000000000000000000000000000033
:104D8000232D302B2000686C4C0065666745464734
:104D900000303132333435363738394142434445B7
:104DA0004600303132333435363738396162636426
:044DB0006566000034
:044DB40031010008C1
:044DB8000D010008E1
:104DBC00010000001000000009024300020100C0C5
:104DCC003209040000010202010005240010010553
:104DDC0024010001042402020524060001070582B7
:104DEC000308001009040100020A00000007050175
:104DFC000240000007058102400000000902430048
:104E0C00020100C032090400000102020100052465
:104E1C0000100105240100010424020205240600EF
:104E2C00010705820308001009040100020A0000B2
:104E3C0000070501020002000705810200020000C4
:104E4C0009074300020104C03209040000010202F8
:104E5C0001000524001001052401000104240202B4
:104E6C000524060001070582030800FF0904010060
:104E7C00020A00000007050102400000070581023C
:104E8C00400000000A060002000000400100000083
:104E9C003F2C0008052C0008912B00080000000096
:104EAC00092B0008F72A0008612B000800000000FD
:104EBC0000000000000000003D2B0008312B000812
:104ECC00492B0008552B000800A24A04A5390008FC
:104EDC00813900088539000889390008120100025F
:104EEC00020200408304405700020102030100004B
:104EFC00040309044D3C0008593C0008893C000897
:104F0C00653C0008A53C0008C93C0008ED3C0008C5
:104F1C006401002000000000404D0008604D0008B6
:104F2C00204D000800000000000000000000000000
:104F3C000000000000000000000000000000000065
:104F4C000000000000000000000000000000000055
:104F5C000000000000000000000000000000000045
:104F6C000000000000000000000000000000000035
:104F7C0000000000ADDEFECAFFFFFFFFFFFFFFFFDA
:0400000508003D11A1
:00000001FF
